S00D000046696E616C2E737265632D
S113000045C000000C94DA090C94410A0C944F0A80
S11300105CC000005AC0000058C0000056C0000078
S113002054C0000052C0000050C000004EC0000088
S11300304CC000004AC0000048C0000046C0000098
S11300400C94AF0942C0000040C000003EC0000054
S11300503CC000003AC0000038C0000036C00000B8
S113006034C0000032C0000030C000002EC00000C8
S11300702CC000002AC0000028C0000026C00000D8
S113008024C0000022C0000020C0000011241FBEB4
S1130090CFEFD0E1DEBFCDBF11E0A0E0B1E0ECE6F0
S11300A0FFE100E00BBF02C007900D92A633B10739
S11300B0D9F721E0A6E3B1E001C01D92A43AB2074A
S11300C0E1F70E946D090C94B40F9ACF8FE39FE17E
S11300D00197F1F700C00000089520E030E008C067
S11300E00F920F900F920F900F920F902F5F3F4F30
S11300F028173907A8F30895CF93C82FE7DF8C2F6B
S1130100807F85BB85B38E7F85BB85B38D7F85BBA3
S113011081E090E0E2DF85B3846085BB81E090E01C
S1130120DCDF85B38B7F85BB20E1C29FC001112436
S113013085BB85B38E7F85BB85B38D7F85BB81E011
S113014090E0CBDF85B3846085BB81E090E0C5DFC0
S113015085B38B7F85BBCF91089581E0CDCF089582
S1130160811104C080E8860FC7CF089580EC860F04
S1130170C3CF0895CF93C82FA9DF8C2F807F85BB71
S113018085B3816085BB85B38D7F85BB81E090E0BD
S1130190A4DF85B3846085BB81E090E09EDF85B3F6
S11301A08B7F85BB20E1C29FC001112485BB85B331
S11301B0816085BB85B38D7F85BB81E090E08DDF59
S11301C085B3846085BB81E090E087DF85B38B7F56
S11301D085BBCF910895CF93DF93EA01C1DF02C0BD
S11301E02196C8DF88818111FBCFDF91CF910895DB
S11301F0EF92FF920F931F93CF93DF93CDB7DEB7A8
S1130200C456D1090FB6F894DEBF0FBECDBFF82E89
S1130210E62E8E010F5F1F4F84E6F80111928A9536
S1130220E9F75F934F9382E191E09F938F931F933C
S11302300F930E94D90CA8016E2D8F2DCCDF0F9047
S11302400F900F900F900F900F90CC59DF4F0FB677
S1130250F894DEBF0FBECDBFDF91CF911F910F91F8
S1130260FF90EF9008952FEF86E791E021508040B2
S11302709040E1F700C000008FEF84BB85B38B7F13
S113028085BB8FE59AEE0197F1F700C0000080E28C
S113029033DF8FE19EE40197F1F700C0000080E2B4
S11302A02BDF88EC90E019DF80E226DF88E224DF90
S11302B08CE022DF81E020DF86E01EDF45E151E0B3
S11302C060E080E088CF08958F929F92AF92BF92B2
S11302D0CF92DF92EF92FF920F93AC0120E030E0D7
S11302E060E070E0CB0116C0FA01EE0FFF1FEE0FC5
S11302F0FF1FE40FF51FE20FF31FEE0FFF1FEE5970
S1130300FE4F0190F081E02D6E0F7F1F811D911D26
S11303102F5F3F4F2530310538F32DEC3CEC4CEC8E
S11303205CEC0E948C0C00E20E94B50C822E932E91
S1130330A42EB52ED501C401B695A795979587959A
S1130340B695A795979587950F91FF90EF90DF90BD
S1130350CF90BF90AF909F908F9008958F929F926F
S1130360AF92BF92CF92DF92EF92FF920F93AC01C4
S113037020E030E060E070E0CB0114C0FA01EE0F41
S1130380FF1FE40FF51FE20FF31FEE0FFF1FEA5BE1
S1130390FE4F0190F081E02D6E0F7F1F811D911D96
S11303A02F5F3F4F2330310548F32BEA3AEA4AEAFC
S11303B05AEA0E948C0C00E20E94B50C822E932E05
S11303C0A42EB52ED501C401B695A795979587950A
S11303D00F91FF90EF90DF90CF90BF90AF909F90E0
S11303E08F90089587E487B986B1806486B9349B79
S11303F0FECF86B1806186B984B195B190934901ED
S11304008093480180E090E0A9DF24E6AC01249FBA
S1130410C001259F900D11246CEB72E00E94690CC1
S1130420CB01089580E487B986B1806486B9349B92
S1130430FECF86B1806186B984B195B190934F01A6
S113044080934E0181E090E089DF24E6289FA0019B
S1130450299F500D11249A01A1EBBFE30E947D0C4A
S1130460481B590B56954795840F951F880F892F64
S1130470881F990B91950895009771F4B3DF9093B9
S1130480550180935401AC016BE080E0B1DE8091B2
S11304905401909155010895019771F4C3DF90932D
S11304A0530180935201AC016EE080E0A1DE8091A3
S11304B0520190915301089540E050E06BE080E0D8
S11304C097DE40E050E06EE080E092DE80E090E075
S11304D008959C012E7133272830310591F0243082
S11304E0310579F02C30310561F02115310549F0E1
S11304F02830310531F02E30310519F02C31310519
S113050041F585FD26C080FD24C08091A201909113
S1130510A3010D970CF483C082E090E090930F0147
S113052080930E011ADE4DE151E060E080E053DE7D
S113053043E251E060E081E04EDE4AE251E069E0EE
S113054081E049DE1092A3011092A20180E090E0C4
S1130550089526313105A9F02A31310591F021158C
S1130560310579F02231310561F02831310549F046
S11305702630310531F02230310519F020313105B2
S113058021F485FF02C080FD4DC09C0128733327F0
S11305902831310549F02830310531F02115310574
S11305A019F02832310511F480FD3FC09C012770F9
S11305B033272630310561F02430310549F0211507
S11305C0310531F02130310519F02530310511F4B0
S11305D085FD2EC0CF9779F58091A2019091A3015A
S11305E00F9764F182E090E090930F0180930E01E5
S11305F0B4DD4DE151E060E080E0EDDD43E251E047
S113060060E081E0E8DD4AE251E069E081E0E3DDB9
S11306101092A3011092A20184E090E0089580E07A
S113062090E0089581E090E0089583E090E00895DB
S113063084E090E0089582E090E0089584E090E002
S113064008959C012E7133272830310599F0243008
S1130650310581F02C30310569F02115310551F057
S11306602830310539F02E30310521F02C31310597
S113067009F061C085FD5FC080FD5DC0892B09F074
S113068053C080919E0190919F01843191050CF497
S11306903CC083E090E090930F0180930E015DDDF8
S11306A04DE151E060E080E096DD43E251E060E03E
S11306B081E091DD4AE251E069E081E08CDD109255
S11306C0A3011092A201109211011092100181E075
S11306D090E0909345018093440120E030E011C004
S11306E0C901880F991FFC01EE5FFE4F40E054E002
S11306F051834083FC01E85CFE4F118210822F5F1E
S11307003F4F2630310564F30FC02091A201309190
S1130710A3012330310544F0019690939F01809307
S11307209E0181E090E0089510929F0110929E0135
S113073080E090E0089526313105A9F02A31310591
S113074091F02115310579F02231310561F028311C
S1130750310549F02630310531F02230310519F0E8
S11307602031310521F485FF02C080FD33C09C0196
S1130770287333272831310549F02830310531F009
S11307802115310519F02832310549F480FF07C0DD
S113079010929F0110929E0185E090E008959C01C3
S11307A0277033272630310561F02430310549F0B4
S11307B02115310531F02130310519F0253031058D
S11307C061F485FF0DC010929F0110929E0186E096
S11307D090E0089581E090E0089582E090E008952B
S11307E082E090E00895CF93DF939C012E7133272C
S11307F02830310599F02430310581F02C30310551
S113080069F02115310551F02830310539F02E30C9
S1130810310521F02C31310509F04DC085FD4BC067
S113082080FD49C0232B09F032C1C0914401D0910D
S113083045012097A1F48091A2019091A30118167B
S113084019066CF481E090E0909345018093440193
S113085080E090E011DE81E090E00EDE44C1C13022
S1130860D10509F017C18091A2019091A3019C01C7
S1130870255031092230310508F40FC107970CF4D3
S113088032C181E090E0F8DD889708F009C181E089
S113089090E0F2DD889730F481E090E0EDDD4D9753
S11308A008F001C181E090E0E7DD4D9708F0FEC05B
S11308B0C0E0D0E018C126313105A9F02A31310554
S11308C091F02115310579F02231310561F028319B
S11308D0310549F02630310531F02230310519F067
S11308E020313105A9F485FF13C080FF11C0C091E8
S11308F04401D0914501C130D10509F0DAC081E04D
S113090090E0BADD899708F4EEC0C2E0D0E0EBC015
S11309109C01287333272831310549F028303105EB
S113092031F02115310519F02832310511F480FD1B
S1130930C3C09C01277033272630310561F0243071
S1130940310549F02115310531F02130310519F017
S11309502530310511F485FDB2C0CF9709F0B2C03E
S1130960C0914401D0914501C130D10509F086C040
S113097080E090E081DD81E090E07EDD8091A20165
S11309809091A3018930910504F580E090E074DD35
S1130990469708F09AC080E090E06EDD469730F408
S11309A080E090E069DD409708F09DC080E090E031
S11309B063DD409708F08CC080E090E05DDD0B972C
S11309C008F489C0C8E0D0E08EC00A970CF486C051
S11309D081E090E051DD4D9708F44CC088B3807FEE
S11309E088BB66B577B580E090E05AD620E030E069
S11309F0A9010CD729D67BBD6ABD66B577B580E061
S1130A0090E04ED620E030E0A90100D71DD679BD94
S1130A1068BD2FEF83E294EF215080409040E1F7CE
S1130A2000C0000088B3807F866088BB66B577B558
S1130A3080E090E035D62DEC3CEC4CEC5EE3E6D661
S1130A4003D67BBD6ABD66B577B580E090E028D655
S1130A502DEC3CEC4CEC5EE3D9D6F6D579BD68BD03
S1130A602FEF83ED90E3215080409040E1F700C0E8
S1130A70000039C081E090E0FFDC35C08091A20124
S1130A809091A30102976CF5C8E0D0E02CC0C1E0BE
S1130A90D0E029C0C2E0D0E026C0C9E0D0E023C045
S1130AA0C2E0D0E020C0C9E0D0E01DC0C2E0D0E088
S1130AB01AC0C1E0D0E017C0C1E0D0E014C0C4E067
S1130AC0D0E011C0C2E0D0E00EC0C7E0D0E00BC05F
S1130AD0C5E0D0E008C0C5E0D0E005C0C5E0D0E086
S1130AE002C0C5E0D0E0CE01DF91CF910895CF934D
S1130AF0DF939C01287333272831310549F02830CE
S1130B00310531F02115310519F02832310511F480
S1130B1080FD77C09C01277033272630310561F0B2
S1130B202430310549F02115310531F021303105EA
S1130B3019F02530310511F485FD66C09C012E7134
S1130B4033272830310591F02430310579F02C30E9
S1130B50310561F02115310549F02830310531F0B6
S1130B602E30310519F02C31310551F585FD28C0A1
S1130B7080FD26C021153105C1F48091A201909118
S1130B80A301039794F4C0914401D0914501C1306D
S1130B90D10559F481E090E06FDC4F97C0F581E016
S1130BA090E06ADC4F97B0F543C0232BB1F58091F8
S1130BB0A2019091A30103979CF5C2E0D0E038C054
S1130BC026313105A9F02A31310591F0211531057D
S1130BD079F02231310561F02831310549F02630B0
S1130BE0310531F02230310519F02031310521F47D
S1130BF085FF02C080FD17C0CF97C1F4CAE2D0E0E0
S1130C0017C0CFE1D0E014C0C9E2D0E011C0C9E000
S1130C10D0E00EC0C2E0D0E00BC0C2E0D0E008C01B
S1130C20C1E0D0E005C0C1E0D0E002C0C2E0D0E045
S1130C30CE01DF91CF91089520910E0130910F01E3
S1130C402130310531F445DC90930101809300019A
S1130C501AC02230310531F4F4DC90930101809301
S1130C60000111C02330310531F4BDDD9093010141
S1130C708093000108C02430310529F438DF9093B3
S1130C8001018093000180E090E008950F931F9389
S1130C90CF93DF938FEF8BBB109237011092360105
S1130CA0C0E0D0E01BC18C2F8F5B87B986B1806414
S1130CB086B9349BFECF86B1806186B98E01000F60
S1130CC0111FA8014A5A5E4FFA018081918124B113
S1130CD035B1FE01EE0FFF1FEE0FFF1FEC0FFD1FDE
S1130CE0E80FF91FEE0FFF1FEE59FE4F31832083EB
S1130CF0FC0131969F01ADECBCECFFD59695879530
S1130D00969587959C01220F331F220F331F820F64
S1130D10931F9F01281B390BFA0131832083CE01D5
S1130D20D3DAF801EE5FFE4F2081318182179307F9
S1130D3028F4F801EE5FFE4F91838083FE01EE0FED
S1130D40FF1FE85CFE4F208131812817390738F4F2
S1130D50FE01EE0FFF1FE85CFE4F918380839E012E
S1130D60220F331FF901E85CFE4F60817181F901A4
S1130D70EE5FFE4F408151816417750769F09C0155
S1130D80241B350BE4E6E29FC001E39F900D112480
S1130D90641B750B9ED502C060E070E080E090E0BB
S1130DA07FD420E030E048EC52E4E6D320911001F7
S1130DB0309111012130310509F048C020E030E0C4
S1130DC040E05FE31FD5882304F181E090E09C01BB
S1130DD00C2E02C0220F331F0A94E2F74091360111
S1130DE050913701242B352B309337012093360152
S1130DF02BB3AE014F5F5F4F02C0880F991F4A9516
S1130E00E2F7809582238BBB68C081E090E09C016F
S1130E100C2E02C0220F331F0A94E2F7209530955E
S1130E204091360150913701242335233093370103
S1130E30209336012BB3AE014F5F5F4F02C0880F82
S1130E40991F4A95E2F7822B8BBB47C020E030E024
S1130E5040E05FE38DD3882304F581E090E09C01BA
S1130E600C2E02C0220F331F0A94E2F74091360180
S1130E7050913701242B352B3093370120933601C1
S1130E802BB3AE014F5F5F4F02C0880F991F4A9585
S1130E90E2F7809582238BBB20C081E090E09C0127
S1130EA00C2E02C0220F331F0A94E2F720953095CE
S1130EB04091360150913701242335233093370173
S1130EC0209336012BB3AE014F5F5F4F02C0880FF2
S1130ED0991F4A95E2F7822B8BBB2196C630D10528
S1130EE008F4E1CEDF91CF911F910F9108954091C5
S1130EF0A2015091A30166E080E07AD940910001FB
S1130F005091010167E081E073D98091440190918F
S1130F104501009731F441E351E06AE080E05BD998
S1130F2007C0019729F443E351E06AE080E053D914
S1130F3040910E0150910F016EE081E059C908956E
S1130F40809100019091010181309105F9F488B3F9
S1130F50807F856088BB66B577B580E090E0A0D3DC
S1130F602AE939E949E95EE351D46ED37BBD6ABD10
S1130F7066B577B580E090E093D32AE939E949E989
S1130F805EE344D461D379BD68BD08958230910590
S1130F90F9F488B3807F8A6088BB66B577B580E052
S1130FA090E07ED32DEC3CEC4CEC5DE32FD44CD3A1
S1130FB07BBD6ABD66B577B580E090E071D32DEC5A
S1130FC03CEC4CEC5DE322D43FD379BD68BD08957D
S1130FD083309105F9F488B3807F866088BB66B559
S1130FE077B580E090E05CD32DEC3CEC4CEC5DE319
S1130FF00DD42AD37BBD6ABD66B577B580E090E099
S11310004FD320E030E040E05FE300D41DD379BD4E
S113101068BD08958330910541F588B3807F86606B
S113102088BB66B577B580E090E03AD32DEC3CEC14
S11310304CEC5EE3EBD308D37BBD6ABD66B577B5F4
S113104080E090E02DD32DEC3CEC4CEC5EE3DED361
S1131050FBD279BD68BD2FEF89E698E1215080402D
S11310609040E1F700C00000089584309105F9F440
S113107088B3807F896088BB66B577B580E090E0EF
S11310800FD320E030E040E05FE3C0D3DDD27BBD8E
S11310906ABD66B577B580E090E002D32DEC3CECF8
S11310A04CEC5DE3B3D3D0D279BD68BD08958932E9
S11310B0910541F588B3807F896088BB66B577B5B3
S11310C080E090E0EDD22DEC3CEC4CEC5EE39ED362
S11310D0BBD27BBD6ABD66B577B580E090E0E0D257
S11310E02DEC3CEC4CEC5EE391D3AED279BD68BD03
S11310F02FEF89E698E1215080409040E1F700C04D
S1131100000008958A32910541F588B3807F896093
S113111088BB66B577B580E090E0C2D22DEC3CEC9C
S11311204CEC5EE373D390D27BBD6ABD66B577B5F4
S113113080E090E0B5D22DEC3CEC4CEC5EE366D361
S113114083D279BD68BD2FEF83ED90E321508040B9
S11311509040E1F700C00000089585309105A1F4A6
S113116088B3807F846088BB1BBC1ABC66B577B526
S113117080E090E095D22DEC3CEC4CEC5EE346D361
S113118063D279BD68BD089586309105A1F488B312
S1131190807F816088BB66B577B580E090E080D2BF
S11311A020E030E040E05FE331D34ED27BBD6ABD46
S11311B019BC18BC089587309105E9F488B3807F81
S11311C0846088BB1BBC1ABC66B577B580E090E030
S11311D067D22DEC3CEC4CEC5EE318D335D279BDF0
S11311E068BD2FEF80E792E0215080409040E1F706
S11311F000C00000089588309105E9F488B3807F29
S1131200816088BB66B577B580E090E049D22DEC6B
S11312103CEC4CEC5EE3FAD217D27BBD6ABD19BC40
S113122018BC2FEF80E792E0215080409040E1F716
S113123000C0000008958930910529F588B3807FA6
S113124088BB66B577B580E090E02AD220E030E034
S1131250A901DCD2F9D17BBD6ABD66B577B580E062
S113126090E01ED220E030E0A901D0D2EDD179BDCA
S113127068BD2FEF81EE94E0215080409040E1F76B
S113128000C000000895892B39F588B3807F8560FC
S113129088BB66B577B580E090E002D220E030E00C
S11312A040E05FE3B3D2D0D17BBD6ABD66B577B50C
S11312B080E090E0F5D120E030E040E05FE3A6D2AA
S11312C0C3D179BD68BD2FEF80E49AE021508040FE
S11312D09040E1F700C000000895109261008FE68D
S11312E087BB8FEF8ABB9FE099BF80936A0087EE2C
S11312F082BF83E083BF81E087BF80E487B987E84A
S113130086B982EA8FBD8AE18EBD10927A008FE899
S113131091E097BD86BD1DBC1CBC80E88FBF78944E
S11313200E9433010E94AD004DE151E060E080E095
S11313300E94EB0043E251E060E081E00E94EB0098
S11313404AE251E069E081E00E94EB009FDC809179
S113135036019091370170DCCADDF2DDF7CF1F92C0
S11313600F920FB60F9211242F938F939F93809116
S1131370A0019091A10101969093A1018093A001F5
S1131380009781F0803D974068F01092A10110927F
S1131390A0018091A2019091A30101969093A301D1
S11313A08093A2019F918F912F910F900FBE0F9068
S11313B01F9018951F920F920FB60F9211240BB61F
S11313C00F922F933F934F935F936F937F938F93DA
S11313D09F93AF93BF93EF93FF9383E090E0909339
S11313E00F0180930E010E94AD004DE151E060E0D9
S11313F080E00E94EB0043E251E060E081E00E9463
S1131400EB004AE251E069E081E00E94EB001092B7
S1131410A3011092A20110921101109210011092D6
S11314209F0110929E01109245011092440120E008
S113143030E011C0C901880F991FFC01EE5FFE4F17
S113144040E054E051834083FC01E85CFE4F11828C
S113145010822F5F3F4F2630310564F3FF91EF91E7
S1131460BF91AF919F918F917F916F915F914F91B8
S11314703F912F910F900BBE0F900FBE0F901F90B6
S113148018951F920F920FB60F9211241092A30178
S11314901092A2010F900FBE0F901F9018951F92EB
S11314A00F920FB60F9211240BB60F922F933F9306
S11314B04F935F936F937F938F939F93AF93BF9358
S11314C0EF93FF9384E090E090930F0180930E01DB
S11314D00E94AD004DE151E060E080E00E94EB002D
S11314E043E251E060E081E00E94EB004AE251E017
S11314F069E081E00E94EB001092A3011092A20126
S1131500109211011092100110929F0110929E01ED
S113151081E090E0909345018093440120E030E025
S113152011C0C901880F991FFC01EE5FFE4F40E016
S113153054E051834083FC01E85CFE4F1182108229
S11315402F5F3F4F2630310564F3FF91EF91BF9138
S1131550AF919F918F917F916F915F914F913F9147
S11315602F910F900BBE0F900FBE0F901F901895E8
S1131570D4D008F481E008950CD00AC102D140F01F
S1131580F9D030F021F45F3F19F0EBC0511134C1B0
S1131590EEC00FD198F39923C9F35523B1F3951BEA
S11315A0550BBB27AA2762177307840738F09F5F80
S11315B05F4F220F331F441FAA1FA9F333D00E2EEF
S11315C03AF0E0E830D091505040E695001CCAF75C
S11315D029D0FE2F27D0660F771F881FBB1F261721
S11315E037074807AB07B0E809F0BB0B802DBF01F4
S11315F0FF2793585F4F2AF09E3F510568F0B1C012
S1131600FBC05F3FECF3983EDCF3869577956795D6
S1131610B795F7959F5FC9F7880F911D96958795A4
S113162097F90895E1E0660F771F881FBB1F6217C3
S113163073078407BA0720F0621B730B840BBA0B81
S1131640EE1F88F7E0950895BCD088F09F5790F07E
S1131650B92F9927B751A0F0D1F0660F771F881FD3
S1131660991F1AF0BA95C9F712C0B13081F0C3D0EE
S1131670B1E00895C0C0672F782F8827B85F39F08C
S1131680B93FCCF3869577956795B395D9F73EF432
S113169090958095709561957F4F8F4F9F4F0895DA
S11316A0E89409C097FB3EF49095809570956195F8
S11316B07F4F8F4F9F4F9923A9F0F92F96E9BB27AE
S11316C09395F695879577956795B795F111F8CF2A
S11316D0FAF4BB0F11F460FF1BC06F5F7F4F8F4F95
S11316E09F4F16C0882311F096E911C0772321F08B
S11316F09EE8872F762F05C0662371F096E8862F23
S113170070E060E02AF09A95660F771F881FDAF779
S1131710880F9695879597F90895990F0008550FA6
S1131720AA0BE0E8FEEF16161706E807F907C0F063
S113173012161306E407F50798F0621B730B840B6B
S1131740950B39F40A2661F0232B242B252B21F445
S113175008950A2609F4A140A6958FEF811D811DE5
S1131760089597F99F6780E870E060E008959FEF1F
S113177080EC089500240A94161617061806090624
S1131780089500240A9412161306140605060895F3
S1131790092E0394000C11F4882352F0BB0F40F47B
S11317A0BF2B11F460FF04C06F5F7F4F8F4F9F4FBB
S11317B0089557FD9058440F551F59F05F3F71F03D
S11317C04795880F97FB991F61F09F3F79F08795A4
S11317D00895121613061406551FF2CF4695F1DF2D
S11317E008C0161617061806991FF1CF86957105BD
S11317F0610508940895E894BB2766277727CB01F1
S113180097F908958ADF08F48FEF08950BD0C0CFBD
S1131810B1DF28F0B6DF18F0952309F0A2CFA7CFE7
S11318201124EACFC6DFA0F3959FD1F3950F50E0C2
S1131830551F629FF001729FBB27F00DB11D639F7E
S1131840AA27F00DB11DAA1F649F6627B00DA11D24
S1131850661F829F2227B00DA11D621F739FB00DCA
S1131860A11D621F839FA00D611D221F749F33273A
S1131870A00D611D231F849F600D211D822F762FD3
S11318806A2F11249F5750408AF0E1F088234AF0D0
S1131890EE0FFF1FBB1F661F771F881F915050401C
S11318A0A9F79E3F510570F05CCFA6CF5F3FECF3E4
S11318B0983EDCF3869577956795B795F795E79508
S11318C09F5FC1F7FE2B880F911D9695879597F919
S11318D00895AA1BBB1B51E107C0AA1FBB1FA61773
S11318E0B70710F0A61BB70B881F991F5A95A9F7C5
S11318F080959095BC01CD010895A29FB001B39F3E
S1131900C001A39F700D811D1124911DB29F700D04
S1131910811D1124911D0895E894DF93CF93FC0158
S1131920DB01EBDF7F936F93E9019A01AC01BF9375
S1131930AF933F932F93DF01E0DF26F46C1B7D0B05
S1131940820B930B9E01EB01FC012BD0AF91BF9155
S11319502F913F9126D0BE01CF01F9012F913F91E4
S1131960CF91DF91089597FB10F8169400080F9318
S1131970083098F00850232F342F452F562F672F07
S1131980782F892F902DF4CF059497958795779587
S1131990679557954795379527950A95AAF70F9117
S11319A00895ABDF460F571FC81FD91F08F431969F
S11319B008950F931F93CF93DF93CDB7DEB72E9780
S11319C00FB6F894DEBF0FBECDBF0D891E8986E029
S11319D08C831A8309838FEF9FE79E838D83AE01E7
S11319E0475E5F4F6F89788DCE01019610D0EF81ED
S11319F0F885E00FF11F10822E960FB6F894DEBF23
S1131A000FBECDBFDF91CF911F910F9108952F92FB
S1131A103F924F925F926F927F928F929F92AF927A
S1131A20BF92CF92DF92EF92FF920F931F93CF93C7
S1131A30DF93CDB7DEB72B970FB6F894DEBF0FBE9A
S1131A40CDBF6C017B018A01FC0117821682838160
S1131A5081FFBFC1CE0101963C01F6019381F701DC
S1131A6093FD859193FF81917F01882309F4ADC192
S1131A70853239F493FD859193FF81917F018532FD
S1131A8021F4B60190E0D6D1E8CF912C212C312C51
S1131A90FFE1F315D8F08B3279F038F4803279F025
S1131AA08332A1F4232D20611DC08D3261F0803377
S1131AB069F4232D216016C0832D8260382EE32D16
S1131AC0E4603E2E2AC0F32DF8601DC037FC2DC003
S1131AD020ED280F2A3040F08E32B9F436FC75C15F
S1131AE0232D2064322E19C036FE06C08AE0989E4B
S1131AF0200D1124922E11C0EAE02E9E200D1124F7
S1131B00222EF32DF0623F2E08C08C3621F4832D53
S1131B108068382E02C0883641F4F70193FD859120
S1131B2093FF81917F018111B3CF982F9F7D9554AD
S1131B30933028F40C5F1F4F9FE399830DC08336C5
S1131B4031F0833771F0833509F055C020C0F801B6
S1131B50808189830E5F1F4F88248394912C5301C5
S1131B6012C02801F2E04F0E511CF801A080B18090
S1131B7036FE03C0692D70E002C06FEF7FEFC50130
S1131B804ED14C018201F32DFF773F2E15C0280161
S1131B9022E0420E511CF801A080B18036FE03C041
S1131BA0692D70E002C06FEF7FEFC5012DD14C01AC
S1131BB0F32DF0683F2E820133FC19C0822D90E092
S1131BC088169906A0F4B60180E290E033D12A94F5
S1131BD0F5CFF50137FC859137FE81915F01B601A0
S1131BE090E028D121102A9421E0821A91088114CE
S1131BF0910479F7E1C0843611F0893639F5F8019A
S1131C0037FE07C060817181828193810C5F1F4F11
S1131C1008C060817181072E000C880B990B0E5F40
S1131C201F4FF32DFF763F2E97FF09C090958095A7
S1131C30709561957F4F8F4F9F4FF0683F2E2AE03C
S1131C4030E0A30133D1882E861844C0853731F49F
S1131C50232D2F7EB22E2AE030E025C0932D997FCC
S1131C60B92E8F36C1F018F4883579F0AEC08037BC
S1131C7019F0883721F0A9C0E92FE061BE2EB4FE27
S1131C800DC0FB2DF460BF2E09C034FE0AC0292FFD
S1131C902660B22E06C028E030E005C020E130E026
S1131CA002C020E132E0F801B7FE07C06081718113
S1131CB0828193810C5F1F4F06C06081718180E037
S1131CC090E00E5F1F4FA301F1D0882E8618FB2DE4
S1131CD0FF773F2E36FE0DC0232D2E7FA22E8914B2
S1131CE058F434FE0BC032FC09C0832D8E7EA82E1E
S1131CF005C0B82CA32C03C0B82C01C0B92CA4FE79
S1131D000FC0FE01E80DF11D8081803321F49A2D6E
S1131D10997EA92E09C0A2FE06C0B394B39404C050
S1131D208A2D867809F0B394A3FC10C0A0FE06C0E7
S1131D30B21480F4280C922C9B180DC0B21458F4E1
S1131D40B60180E290E076D0B394F8CFB21418F4E0
S1131D502B1802C0982C212CA4FE0FC0B60180E3DE
S1131D6090E068D0A2FE16C0A1FC03C088E790E012
S1131D7002C088E590E0B6010CC08A2D867851F047
S1131D80A1FE02C08BE201C080E2A7FC8DE2B60195
S1131D9090E050D0891430F4B60180E390E04AD04A
S1131DA09A94F8CF8A94F301E80DF11D8081B6016D
S1131DB090E040D08110F6CF222009F44ECEB60137
S1131DC080E290E037D02A94F7CFF601868197819C
S1131DD002C08FEF9FEF2B960FB6F894DEBF0FBEB5
S1131DE0CDBFDF91CF911F910F91FF90EF90DF90C6
S1131DF0CF90BF90AF909F908F907F906F905F90A7
S1131E004F903F902F900895FC01059061507040D1
S1131E100110D8F7809590958E0F9F1F0895FC01AF
S1131E206150704001900110D8F7809590958E0F05
S1131E309F1F08950F931F93CF93DF93FB0123817B
S1131E4021FD03C08FEF9FEF2CC022FF16C04681F7
S1131E505781248135814217530744F4A081B1810D
S1131E609D012F5F3F4F318320838C9326813781DF
S1131E702F5F3F4F3783268314C08B01EC01FB0196
S1131E800084F185E02D0995892BE1F6D801169699
S1131E908D919C911797019617969C938E93169704
S1131EA0CE01DF91CF911F910F910895FA01AA27D6
S1131EB0283051F1203181F1E8946F936E7F6E5F89
S1131EC07F4F8F4F9F4FAF4FB1E03ED0B4E03CD037
S1131ED0670F781F891F9A1FA11D680F791F8A1F1A
S1131EE0911DA11D6A0F711D811D911DA11D20D081
S1131EF009F468943F912AE0269F11243019305D3B
S1131F003193DEF6CF010895462F4770405D41932B
S1131F10B3E00FD0C9F7F6CF462F4F70405D4A3378
S1131F2018F0495D31FD4052419302D0A9F7EACF40
S1131F30B4E0A6959795879577956795BA95C9F76F
S1131F4000976105710508959B01AC010A2E069462
S1131F505795479537952795BA95C9F7620F731F1B
S10F1F60841F951FA01D0895F894FFCF66
S1131F6C0100000400040004000400040004010047
S1131F7C0100256400496E6974204F4B0074696D2F
S1131F8C653A006D6F746F723A004D4F44453A20B8
S1091F9C0078006F000054
S9030000FC
